:10000000DC018C91803019F08091C000FDCF089503
:10001000EF92FF921F931092C50087E68093C40071
:1000200088E08093C10086E08093C200259A0E94F8
:1000300026008DE690E07C0110E2C7010E940000DE
:1000400085B1812785B90E942600F7CF80E090E036
:1000500024E532E14AEFBC01FC0151E06B3E72073E
:10006000E807F90708F4512D5170503041F4342F4E
:100070003A95F1F76F5F7F4FEF4FFF4FEECF089547
:060080008091C000FDCFDD
:1000860048656C6C6F20576F726C6421006869005C
:00000001FF
