:10000000EEEDF3E0A0E0B1E081E491E002C02591E3
:100010002D93A817B907D9F7A1E4B1E083E491E0E3
:1000200020E001C02D93A817B907E1F70E9418003E
:100030002F923F924F925F926F927F928F929F92F8
:10004000AF92BF92CF92DF92EF92FF920F931F93E6
:10005000CF93DF93CDB7DEB764970FB6F894DEBFCA
:100060000FBECDBF1092C50087E68093C40088E024
:100070008093C10086E08093C200259A539A5298DB
:1000800012E180E09DE75C0160E070E08BE090E0D1
:100090001C0181E090E04C0188EE93E07C018EE051
:1000A00091E06C0183E090E03C012B0187B1886313
:1000B00087B9439A459A44980E94CD010E94CD0188
:1000C0005B9896E0192F1A95F1F7192F1A95F1F709
:1000D0005B9A192F1A95F1F7192F1A95F1F7192F25
:1000E0001A95F1F7192F1A95F1F7192F1A95F1F7BB
:1000F000192F1A95F1F7192F1A95F1F7192F1A954B
:10010000F1F7192F1A95F1F7192F1A95F1F75B9856
:1001100089B1803031F483E091E06AE070E00E94C0
:100120005E01C501A20129B12470203049F0019778
:1001300081159105C1F786E291E0B30138C00197BE
:1001400029B12470203031F481159105C1F780E088
:1001500091E02BC0FA0129B12470203031F0E8176A
:10016000F90709F420C03196F6CF8AE291E063E105
:1001700070E08F010E945E01C8018115910509F4AC
:1001800063C0BE01655F7F4F0E947F019C01CB0170
:10019000B9010E945E01C8018D3F2FE0920750F423
:1001A00001969F7007C08EE391E062E070E00E94CC
:1001B0005E01C401B701412D0E9428018C01C601D6
:1001C000B1010E945E0191E11902802D1124099F65
:1001D000212D1124280F322F2227802D9927822BA1
:1001E000932BBE016F5F7F4F0E947F019C01CB016B
:1001F000B9010E945E010115110512E1B20104E589
:1002000009F41DC080E48BB92A9A0E94CD015AEFEF
:10021000B2015E982A98CB019B0141E08B3E90078A
:100220002607370708F4412D4170403041F4152F5F
:100230001A95F1F78F5F9F4F2F4F3F4FEECF85B14C
:1002400090E2892785B931CF8AE191E0B101AFCF42
:10025000EF92FF920F931F9321E030E0572F552329
:100260005AF06817790740F42115310529F0220F5B
:10027000331F660F771FF2CFA0E0B0E0FD0121151C
:10028000310599F0861797078D0108F089018617C7
:1002900097077D0108F07B01E02BF12B8E199F0958
:1002A0007695679536952795EACF4170403009F4E9
:1002B000CF011F910F91FF90EF900895CF92DF92A1
:1002C000EF92FF920F931F938B017C0180E090E0EF
:1002D0008017910750F4D701A80FB91F6C018C91BA
:1002E0000E94E701C6010196F3CF8AE00E94E70170
:1002F0001F910F91FF90EF90DF90CF9008956F9234
:100300007F928F929F92AF92BF92CF92DF92EF92A5
:10031000FF920F931F93DB017C01FD011186E11415
:10032000F10409F426C06D01E9E0F0E08AE090E014
:100330004C01E114F104B1F0C7015401B50141E0F1
:100340003F010E9428018C01C701B501412D0E9487
:100350002801F3017C01005D3197D601AE0FBF1F6C
:100360000C93E7CFC4018E1B9F0BD601AE0FBF1FAE
:1003700006C080E3FD018087189682E090E0BD0111
:100380001F910F91FF90EF90DF90CF90BF90AF90B3
:100390009F908F907F906F90089580E090E028E08C
:1003A00032E14AEFBC01FC0151E067357207E80712
:1003B000F90708F4512D5170503041F4342F3A951B
:1003C000F1F76F5F7F4FEF4FFF4FEECF08959091A2
:0E03D000C00090729030D9F38093C60008955B
:1003DE00536C006563686F5F70696E20300044690E
:1003EE007374616E6365203A2000776964746820C7
:1003FE007A65726F0A0046690A00337264206C6F68
:10040E006F7020636F6D706C657465640A00540ABA
:01041E0000DD
:00000001FF
