:10000000E4E9F3E0A0E0B1E081E491E002C02591F1
:100010002D93A817B907D9F7A1E4B1E081E491E0E5
:1000200020E001C02D93A817B907E1F70E9418003E
:100030002F923F924F925F926F927F928F929F92F8
:10004000AF92BF92CF92DF92EF92FF920F931F93E6
:10005000CF93DF93CDB7DEB764970FB6F894DEBFCA
:100060000FBECDBF1092C50087E68093C40088E024
:100070008093C10086E08093C200259A539A5298DB
:1000800080EF9FEF5C0100E010E08BE090E01C014E
:1000900081E090E04C0188EE93E07C018EE091E0FD
:1000A0006C0183E090E03C0128015B980E94A8016C
:1000B0000E94A8015B9A0E94A8010E94A8010E94C8
:1000C000A8010E94A8010E94A8010E94A8010E9404
:1000D000A8010E94A8010E94A8010E94A8015B98A3
:1000E00089B1803031F483E091E06AE070E00E94F1
:1000F0003901C50129B12470203049F001978115DB
:100100009105C1F786E291E0B30138C0019729B1AA
:100110002470203031F481159105C1F780E091E021
:100120002BC0F80129B12470203031F0E817F9070D
:1001300009F420C03196F6CF8AE291E063E170E0E5
:100140008F010E943901C8018115910509F457C03A
:10015000BE01655F7F4F0E945A019C01CB01B9012E
:100160000E943901C8018D3F2FE0920750F401969B
:100170009F7007C08EE391E062E070E00E94390159
:10018000C401B701412D0E9403018C01C601B101D8
:100190000E94390191E11902802D1124099F212D1E
:1001A0001124280F322F2227802D9927822B932B61
:1001B000BE016F5F7F4F0E945A019C01CB01B901C4
:1001C0000E94390185B190E2892785B98201C80171
:1001D000980154E562E17AEF41E08B3E95072007F4
:1001E000310708F4412D4170403009F05ECF672F90
:1001F0006A95F1F78F5F9F4F2F4F3F4FEDCF8AE109
:1002000091E0B101BBCFEF92FF920F931F9321E0DA
:1002100030E0572F55235AF06817790740F421151D
:10022000310529F0220F331F660F771FF2CFA0E0B0
:10023000B0E0FD012115310599F0861797078D0172
:1002400008F08901861797077D0108F07B01E02BF4
:10025000F12B8E199F097695679536952795EACFEC
:100260004170403009F4CF011F910F91FF90EF9042
:100270000895CF92DF92EF92FF920F931F938B011D
:100280007C0180E090E08017910750F4D701A80F1F
:10029000B91F6C018C910E94C201C6010196F3CF77
:1002A0008AE00E94C2011F910F91FF90EF90DF90B2
:1002B000CF9008956F927F928F929F92AF92BF924C
:1002C000CF92DF92EF92FF920F931F93DB017C019D
:1002D000FD011186E114F10409F426C06D01E9E085
:1002E000F0E08AE090E04C01E114F104B1F0C701C4
:1002F0005401B50141E03F010E9403018C01C70197
:10030000B501412D0E940301F3017C01005D31978D
:10031000D601AE0FBF1F0C93E7CFC4018E1B9F0BFE
:10032000D601AE0FBF1F06C080E3FD01808718967F
:1003300082E090E0BD011F910F91FF90EF90DF9060
:10034000CF90BF90AF909F908F907F906F900895C7
:1003500080E090E023E532E14AEFBC01FC0151E08E
:1003600062377207E807F90708F4512D51705030D1
:1003700041F4342F3A95F1F76F5F7F4FEF4FFF4F06
:10038000EECF08959091C00090729030D9F3809391
:04039000C600089506
:10039400536C006563686F5F70696E203000446958
:1003A4007374616E6365203A200077696474682011
:1003B4007A65726F0A0046690A00337264206C6FB2
:1003C4006F7020636F6D706C657465640A00540A05
:0103D4000028
:00000001FF
